:100000000C94B3000C94AF030C94D4000C94D40063
:100010000C94D4000C948A030C9465030C94D400C3
:100020000C94D4000C94D4000C94D4000C94D40000
:100030000C94D4000C94D4000C94D4000C94D400F0
:100040000C94D4000C94D4000C94D4000C94D400E0
:100050000C94D4000C94D4000C94D4000C94D400D0
:100060000C94D4000C945A100C94D4000C94D4002A
:100070000C94D4000C94D4000C94D4000C94D400B0
:100080000C94D4000C94D4000C94D4000C94D400A0
:100090000C94D4000C94D4000C94D4000C94D40090
:1000A0000C94D4000C94D4000C94D4000C94D40080
:1000B0000C94D4000C94D4000C94D4000C94D40070
:1000C0000C94D4000C94D4000C94D4000C94D40060
:1000D0000C94D4000C94D4000C94D4000C94D40050
:1000E0000C94D40007634236B79BD8A71A396856D8
:1000F00018AEBAAB558C1D3CB7CC5763BD6DEDFD4A
:10010000753EF6177231BF000000803F0800000006
:10011000BE922449123EABAAAA2ABECDCCCC4C3EFC
:1001200000000080BEABAAAAAA3E00000000BF00EB
:100130000000803F0000000000084178D3BB4387E7
:10014000D1133D190E3CC3BD4282AD2B3E68EC82FB
:1001500076BED98FE1A93E4C80EFFFBE01C4FF7F80
:100160003F000000000011241FBECFEFD1E2DEBF30
:10017000CDBF00E00CBF13E0A0E0B2E0EAE0FEE299
:1001800000E00BBF02C007900D92AC30B107D9F769
:1001900014E0ACE0B3E001C01D92A93DB107E1F766
:1001A0000E9434130C9403170C94000080911003E8
:1001B00090911103009719F180915203909153038C
:1001C000FC01EE0FFF1F9C01220F331F220F331F74
:1001D000220F331FE20FF31F8E0F9F1F2091C204C7
:1001E0003091C304820F931FFC01EE0FFF1FE85FE5
:1001F000FD4F8091BD049091BE0491838083209136
:10020000B3043091B4044091B9045091BA04F90197
:10021000EE0FFF1FC901880F991F880F991F880FC4
:10022000991FE80FF91FE20FF31FE40FF51FEE0F00
:10023000FF1FE85FFD4F808191819093BE04809302
:10024000BD0487E090E09183808330935303209333
:1002500052035093C3044093C20481E090E0909312
:10026000110380931003089586E69EE00197F1F74D
:1002700000004098419880E388B9429AEFEFF7E494
:100280003197F1F700C000004298E6E6FEE03197B2
:10029000F1F700004098419888B9429AEFEFF7E4EF
:1002A0003197F1F700C000004298E6E6FEE0319792
:1002B000F1F700004098419888B9429A8FEF97E48F
:1002C0000197F1F700C000004298E6E6FEE03197A2
:1002D000F1F700004098419880E288B9429A8FEF88
:1002E00097E40197F1F700C000004298089598B193
:1002F0009F7098B998B1282F207F922B98B9409879
:100300004198429AEFEFF7E43197F1F700C000000F
:10031000429898B19F7098B998B18295807F892B47
:1003200088B940984198429A8FEF97E40197F1F786
:1003300000C00000429808950E94340186E69EE0C5
:100340000197F1F7000088E20E94770181E00E94A6
:10035000770186E00E9477018EE00E94770180E8B5
:100360000E947701089598B19F7098B998B1282F8D
:10037000207F922B98B9409A4198429AEFEFF7E488
:100380003197F1F700C00000429898B19F7098B97A
:1003900098B18295807F892B88B9409A4198429A7A
:1003A0008FEF97E40197F1F700C00000429808959D
:1003B00080E80E9477010895CF93DF93EC01888154
:1003C000882331F021960E94B30189918823D9F7BF
:1003D000DF91CF910895823079F0833018F4813025
:1003E000C9F405C0833069F08430A1F40FC0862FB2
:1003F00081580E9477010895862F81540E947701C9
:100400000895862F8D560E9477010895862F8D526C
:100410000E94770108950F931F93CF93DF938A0172
:10042000E901882311F0662319F40E94D80102C063
:100430000E94EB01C530D10571F4C80160E177E29B
:100440000E94DC16CB01C096909355038093540311
:100450000E94B30103C0C430D105B9F4C80168EEED
:1004600073E00E94DC16CB017093FB036093FA03E8
:100470006AE070E00E94DC16C0969093D4048093EA
:10048000D3040E94B30181E001C080E0C330D105F4
:1004900011F08130B1F4C80164E670E00E94DC160E
:1004A000CB017093FB036093FA036AE070E00E9453
:1004B000DC16C0969093CB048093CA040E94B301CB
:1004C00081E0C230D10511F08130B1F42AE030E092
:1004D000C801B9010E94DC16CB017093FB03609345
:1004E000FA03B9010E94DC16C0969093BC04809375
:1004F000BB040E94B30181E0C130D10511F081300D
:1005000061F4C8016AE070E00E94DC16C096909326
:10051000D2048093D1040E94B301C630D1051CF0EF
:1005200085E40E94B301DF91CF911F910F9108954F
:1005300080911403909115030097E9F581E090E014
:1005400090930F0380930E03409142035091430315
:1005500081E06EE021E030E00E940B024091C00497
:100560005091C10481E06FE021E030E00E940B0275
:100570004091C4045091C50481E060E121E030E085
:100580000E940B0280914203880F982F990F990FB8
:10059000890F9091C004890FE6ECF0E08083909180
:1005A0000E0398538091C404880F282F220F220F26
:1005B000820F890F808381E06AE00E94EB0180E076
:1005C00092E00E94DC0140910C0350910D0381E008
:1005D0006AE021E030E00E940B02809114039091C8
:1005E00015038130910569F490912C039C598091F9
:1005F000FA02880F282F220F220F820F890F809373
:10060000C600089592B1907F8F70982B92B908958B
:1006100081B18F6081B982B1807F82B9EAE0F1E077
:10062000808188618083EBE0F1E080818861808354
:100630000895E1E2F1E010828FEF8093250191E0CF
:1006400090932401109229018093280110922B018C
:1006500080932A0110922D0180932C0189EA8093C6
:1006600020018BE0808308958093280160932A0104
:10067000089586E00E940203089589E00E94020323
:10068000089585E00E94020308958AE00E94020313
:10069000089580E00E94020308956C98749A08956A
:1006A0006D98759A0895F894EAE6F0E0808182608A
:1006B0008083EC9A78940895F894EAE6F0E08081DB
:1006C00088608083ED9A789408951F920F920FB6F8
:1006D0000F9211248F939F93AF93BF9380913A030E
:1006E00090913B03A0913C03B0913D030196A11D65
:1006F000B11D80933A0390933B03A0933C03B093C6
:100700003D03BF91AF919F918F910F900FBE0F90BE
:100710001F9018951F920F920FB60F9211248F936E
:100720009F93AF93BF9380913E0390913F03A0911D
:100730004003B09141030196A11DB11D80933E037A
:1007400090933F03A0934003B0934103BF91AF91B7
:100750009F918F910F900FBE0F901F9018951F9231
:100760000F920FB60F9211248F939F93AF93BF9365
:100770008091160390911703A0911803B09119036B
:100780000196A11DB11D8093160390931703A093AA
:100790001803B0931903BF91AF919F918F910F9060
:1007A0000FBE0F901F9018950F931F93CF93BC010E
:1007B00080E090E00E947A1428E431EE42E850E4B0
:1007C0000E94E1130E944E14DC01CB01A0E0B0E0D6
:1007D00010923A0310923B0310923C0310923D0397
:1007E00010923E0310923F03109240031092410377
:1007F000F1E0C0E040913A0350913B0360913C032B
:1008000070913D0300913E0310913F0320914003FE
:1008100030914103EF2F481759076A077B0708F407
:10082000EC2FEE2349F44F2F081719072A073B072F
:1008300008F44C2F4423F1F20E944903CF911F91F9
:100840000F910895BC0180E090E00E947A1425EE9B
:1008500030ED4AEA50E40E94E1130E944E14462F04
:10086000572F682F792F10923A0310923B03109262
:100870003C0310923D0310923E0310923F031092EE
:1008800040031092410380913E0390913F03A09159
:100890004003B0914103481759076A077B0798F74F
:1008A0000E9449030895CF93DF93EC010E9439031E
:1008B000CE010E942204DF91CF910895CF93DF9360
:1008C000EC010E943D03CE010E942204DF91CF91F2
:1008D0000895CF93DF93EC010E944103CE010E9463
:1008E000D403DF91CF910895CF93DF93EC010E9461
:1008F0004503CE010E94D403DF91CF91089587B1C3
:10090000876F87B988B1807888B90895259A2D9A1C
:100910000895269A2E9A0895279A2F9A0895E1E825
:10092000F0E010828CEF8093850081E0809384005A
:1009300093E0909389008FEF8093880090938B00D1
:1009400080938A0090938D0080938C009093870011
:10095000809386008BEA80938000109282008CE066
:10096000808308953B9A4398089586B1886088B93A
:10097000089586B1877F88B9089510BA11BAEAE759
:10098000F0E0108210927B0080E280937C0080E88F
:1009900080BF86E880830895883018F098E09093AF
:1009A0007B008770806280937C00EAE7F0E08081C2
:1009B00080648083808184FFFDCF80917900EAE7A5
:1009C000F0E090819061908310927B000895CF9326
:1009D000DF9383E00E94CC04D82F82E00E94CC04F5
:1009E000C82F81E00E94CC04D43138F421E030E0FB
:1009F0003093FF032093FE0304C01092FF03109274
:100A0000FE03C43138F421E030E030930104209338
:100A1000000404C01092010410920004843138F4E0
:100A200081E090E0909303048093020404C010924C
:100A3000030410920204DF91CF91089510920701F0
:100A40001092080108953B9A43980895CF93DF933D
:100A5000D82FC62F842F0E94CC04482F8093B00437
:100A60008D2F6C2F50E023E030E00E940B02DF91CD
:100A7000CF9108950F931F93682F70E080E090E06E
:100A80000E947A142FEE39EC43E95FE30E946B1564
:100A9000B62FA72F382F292F60E070E080E89FE362
:100AA000422F0B2F1A2F232F342FA90198010E94B8
:100AB000E1132AE939EF4EE255E40E94081520E0DF
:100AC00030E040E251E40E9408150E944914882752
:100AD00077FD8095982F0E947C140E944914862FE0
:100AE000972F23E08132920710F080E293E01F916C
:100AF0000F9108958AB18E6F8AB9589A0895E2E0ED
:100B0000F1E080818F798083A198EBE0F1E0808132
:100B10008F7780830895E1E0F1E0808180668083B3
:100B2000999AEAE0F1E08081806880830E947F05E5
:100B300008950E947F05E2E0F1E080818062808379
:100B400008950E947F05E2E0F1E080818064808367
:100B500008958091C4049091C5048130910569F491
:100B60000E9499058FEF9FEFACE281509040A0402A
:100B7000E1F700C000000E947F058091C4049091BD
:100B8000C5048230910569F40E94A1058FEF9FEFA3
:100B9000ACE281509040A040E1F700C000000E940C
:100BA0007F0508950E947F05EBE0F1E08081806879
:100BB00080830895E1ECF0E010821092C00086E09E
:100BC0008093C2008FE58093C4001092C50088E92D
:100BD00080830895F894E9E6F0E080818260808364
:100BE000E89A789408955E985F9808955E9A5F9A5F
:100BF00008955E985F9A08955C9A5D9A08950E94A0
:100C000099058FEF9FEFACE281509040A040E1F753
:100C100000C000000E94A1058FEF9FEFACE2815061
:100C20009040A040E1F700C000000E94D2058FEF85
:100C30009FEFACE281509040A040E1F700C000007F
:100C4000DECF0E9408030E9423050E944D030E94EC
:100C500050030E9453030E945C030E94BD040E9443
:100C60007F040E9419030E947A050E94EA050E94EF
:100C70008B050E94DA050E9486040E9489040E9466
:100C80008C040E948F0408950E94F30510921603AD
:100C90001092170310921803109219038FEF9FE719
:100CA000A4E081509040A040E1F700C00000809196
:100CB000160390911703A0911803B0911903809324
:100CC0000A0490930B04A0930C04B0930D040895B0
:100CD0000E94F60510921603109217031092180343
:100CE000109219038FEF9FE7A4E081509040A0403D
:100CF000E1F700C000008091160390911703A091C6
:100D00001803B09119038093020490930304A093F5
:100D10000404B093050408950E94F9051092160387
:100D20001092170310921803109219038FEF9FE788
:100D3000A4E081509040A040E1F700C00000809105
:100D4000160390911703A0911803B0911903809393
:100D5000480390934903A0934A03B0934B0308952B
:100D60000E9444060E9468060E948C06409102047C
:100D700050910304609104047091050480910A0469
:100D800090910B04A0910C04B0910D048417950769
:100D9000A607B707A8F4409102045091030460919C
:100DA0000404709105048091480390914903A09137
:100DB0004A03B0914B0384179507A607B70758F16C
:100DC00040910A0450910B0460910C0470910D0441
:100DD0008091020490910304A0910404B091050451
:100DE00084179507A607B707A8F440910A04509105
:100DF0000B0460910C0470910D0480914803909154
:100E00004903A0914A03B0914B0384179507A607A5
:100E1000B70720F0089522E030E002C021E030E082
:100E2000822F932F089510928900682F70E080E040
:100E300090E00E947A142BE734E14EEE5FE30E94CB
:100E4000E11320E030E04CE052E40E947D130E9468
:100E50004E1460938800089510928B00682F70E004
:100E600080E090E00E947A142BE734E14EEE5FE3DD
:100E70000E94E11320E030E04CE052E40E947D1338
:100E80000E944E1460938A00089510928D00682F7E
:100E900070E080E090E00E947A142BE734E14EEE9F
:100EA0005FE30E94E11320E030E04CE052E40E9456
:100EB0007D130E944E1460938C00089583E080930C
:100EC00089008FEF80938800089583E080938B00E2
:100ED0008FEF80938A00089583E080938D008FEFD9
:100EE00080938C0008950E94B5048FEF9FEFACE2D1
:100EF00081509040A040E1F700C000000E94B9047A
:100F000008950E94B5048FEF9FEFA9E581509040AE
:100F1000A040E1F700C000000E94B90408950E94BB
:100F2000D2050E9481070E947F0508950E94B504A2
:100F30008FEF9FEFA6E7B1E081509040A040B04016
:100F4000D9F700C000000E94B90408950F931F93C1
:100F5000CF93DF938EEB6EEB0E9434030E94450328
:100F6000C7EED4E0FE011995809100049091010430
:100F70008130910551F400E014E0FE011995F8016B
:100F80008081918181309105C1F38FEF6FEF0E94D5
:100F900034030E944903DF91CF911F910F9108956F
:100FA0000F931F93CF93DF9386E96EEB0E94340378
:100FB0000E944103C7EED4E0FE0119958091000420
:100FC000909101048130910551F400E014E0FE019C
:100FD0001995F8018081918181309105C1F38FEFDE
:100FE0006FEF0E9434030E944903DF91CF911F915C
:100FF0000F91089588E290E00E9474040E94A60771
:10100000089588E290E00E9469040E94D007089544
:10101000CF93DF93C6E0D0E08BE00E94CC048093B6
:10102000D0040E943A05AC019093D8048093D70471
:1010300082E061E023E030E00E940B02219761F73B
:101040002091D7043091D8042353304081E090E0C0
:101050002138310510F080E090E0DF91CF910895C4
:101060000E94AA0E80910803909109038A5590402E
:101070000E94530410921503109214038AE090E02A
:101080000E945E0489E190E00E9469040E94B0061B
:101090009093C5048093C4040E94A9050E949802FD
:1010A00089E190E00E947404809108039091090303
:1010B000845690400E945E040E947F05089586E554
:1010C00090E00E9474040E940808282F392F309362
:1010D0003703209336032130310519F40E9430087C
:1010E00002C00E948F070E94010880911A0390910C
:1010F0001B03019690931B0380931A0310923703EE
:1011000010923603089588E590E00E9469040E94D9
:101110000808282F392F30933903209338032130C2
:10112000310519F40E94300802C00E948F070E9406
:10113000FA0780911A0390911B03019690931B0369
:1011400080931A0310923903109238030895809106
:10115000FA029091FB0280FDEEC1209134033091A0
:1011600035032330310509F0EDC020912C03309177
:101170002D03A901425050404730510508F06CC082
:10118000FC01EE0FFF1FEE0FFF1FEE0FFF1F8E0F74
:101190009F1F280F391FF901EE0FFF1FEC5AFC4F5C
:1011A000808191810097F1F40E9483088091FA0276
:1011B0009091FB02FC01EE0FFF1FEE0FFF1FEE0FE1
:1011C000FF1F8E0F9F1F20912C0330912D03820F44
:1011D000931FFC01EE0FFF1FEC5AFC4F81E090E0E3
:1011E000918380838091FA029091FB02FC01EE0FC3
:1011F000FF1FEE0FFF1FEE0FFF1F8E0F9F1F20918F
:101200002C0330912D03820F931FFC01EE0FFF1F63
:10121000E85AFC4F808191810097F1F40E945F08A9
:101220008091FA029091FB02FC01EE0FFF1FEE0F7E
:10123000FF1FEE0FFF1F8E0F9F1F20912C03309179
:101240002D03820F931FFC01EE0FFF1FE85AFC4F86
:1012500081E090E09183808380912C0390912D0315
:1012600089309105A1F58091FA029091FB02880FD7
:10127000991FFC01EE0FFF1FEE0FFF1FEE0FFF1F68
:101280008E0F9F1FFC01EA5AFC4F808991890097BD
:10129000F1F40E9483088091FA029091FB02FC0114
:1012A000EE0FFF1FEE0FFF1FEE0FFF1F8E0F9F1F92
:1012B00020912C0330912D03820F931FFC01EE0F20
:1012C000FF1FEC5AFC4F81E090E091838083809176
:1012D0002C0390912D0381309105A1F58091FA02A4
:1012E0009091FB02880F991FFC01EE0FFF1FEE0F7C
:1012F000FF1FEE0FFF1F8E0F9F1FFC01EA5AFC4FCE
:10130000848195810097F1F40E945F088091FA0230
:101310009091FB02FC01EE0FFF1FEE0FFF1FEE0F7F
:10132000FF1F8E0F9F1F20912C0330912D03820FE2
:10133000931FFC01EE0FFF1FE85AFC4F81E090E085
:10134000918380838091340390913503813091059E
:1013500009F0F1C080912C0390912D039C01225043
:1013600030402730310508F070C02091FA023091EA
:10137000FB02F901EE0FFF1FEE0FFF1FEE0FFF1F25
:101380002E0F3F1F820F931FFC01EE0FFF1FEC5A21
:10139000FC4F808191810097F1F40E945F08809159
:1013A000FA029091FB02FC01EE0FFF1FEE0FFF1FF0
:1013B000EE0FFF1F8E0F9F1F20912C0330912D03E6
:1013C000820F931FFC01EE0FFF1FEC5AFC4F81E0D0
:1013D00090E0918380838091FA029091FB02FC015E
:1013E000EE0FFF1FEE0FFF1FEE0FFF1F8E0F9F1F51
:1013F00020912C0330912D03820F931FFC01EE0FDF
:10140000FF1FE85AFC4F808191810097F1F40E9400
:1014100083088091FA029091FB02FC01EE0FFF1FFE
:10142000EE0FFF1FEE0FFF1F8E0F9F1F20912C034B
:1014300030912D03820F931FFC01EE0FFF1FE85A1E
:10144000FC4F81E090E09183808380912C03909108
:101450002D0389309105A1F58091FA029091FB024C
:10146000880F991FFC01EE0FFF1FEE0FFF1FEE0FFD
:10147000FF1F8E0F9F1FFC01EA5AFC4F8089918944
:101480000097F1F40E945F088091FA029091FB02AC
:10149000FC01EE0FFF1FEE0FFF1FEE0FFF1F8E0F61
:1014A0009F1F20912C0330912D03820F931FFC016D
:1014B000EE0FFF1FEC5AFC4F81E090E09183808398
:1014C00080912C0390912D0381309105A1F580919D
:1014D000FA029091FB02880F991FFC01EE0FFF1F8B
:1014E000EE0FFF1FEE0FFF1F8E0F9F1FFC01EA5A2A
:1014F000FC4F848195810097F1F40E9483088091CC
:10150000FA029091FB02FC01EE0FFF1FEE0FFF1F8E
:10151000EE0FFF1F8E0F9F1F20912C0330912D0384
:10152000820F931FFC01EE0FFF1FE85AFC4F81E072
:1015300090E09183808380912C0390912D0380FD16
:10154000D3C120913403309135032115310509F0C1
:10155000E0C02091FA023091FB02A90142505040B4
:101560004730510508F071C021503040F901EE0FAD
:10157000FF1FEE0FFF1FEE0FFF1F2E0F3F1F820FEB
:10158000931FFC01EE0FFF1FEA5AFC4F80819181EF
:101590000097F9F40E9483088091FA029091FB026F
:1015A0000197FC01EE0FFF1FEE0FFF1FEE0FFF1F55
:1015B0008E0F9F1F20912C0330912D03820F931FBC
:1015C000FC01EE0FFF1FEA5AFC4F81E090E091838F
:1015D00080838091FA029091FB020196FC01EE0F4C
:1015E000FF1FEE0FFF1FEE0FFF1F8E0F9F1F20919B
:1015F0002C0330912D03820F931FFC01EE0FFF1F70
:10160000EA5AFC4F808191810097F9F40E945F08AB
:101610008091FA029091FB020196FC01EE0FFF1FF0
:10162000EE0FFF1FEE0FFF1F8E0F9F1F20912C0349
:1016300030912D03820F931FFC01EE0FFF1FEA5A1A
:10164000FC4F81E090E0918380838091FA02909139
:10165000FB028930910559F5E0912C03F0912D039F
:10166000EE0FFF1FEA51FC4F808191810097F9F442
:101670000E9483088091FA029091FB020197FC017D
:10168000EE0FFF1FEE0FFF1FEE0FFF1F8E0F9F1FAE
:1016900020912C0330912D03820F931FFC01EE0F3C
:1016A000FF1FEA5AFC4F81E090E091838083809194
:1016B000FA029091FB028130910559F5E0912C03DB
:1016C000F0912D03EE0FFF1FE658FC4F80819181B2
:1016D0000097F9F40E945F088091FA029091FB0252
:1016E0000196FC01EE0FFF1FEE0FFF1FEE0FFF1F15
:1016F0008E0F9F1F20912C0330912D03820F931F7B
:10170000FC01EE0FFF1FEA5AFC4F81E090E091834D
:10171000808380913403909135038230910509F0E4
:10172000E3C08091FA029091FB029C01225030406C
:101730002730310508F074C00197FC01EE0FFF1F40
:10174000EE0FFF1FEE0FFF1F8E0F9F1F20912C0328
:1017500030912D03820F931FFC01EE0FFF1FEA5AF9
:10176000FC4F808191810097F9F40E945F0880917D
:10177000FA029091FB020197FC01EE0FFF1FEE0FA2
:10178000FF1FEE0FFF1F8E0F9F1F20912C03309124
:101790002D03820F931FFC01EE0FFF1FEA5AFC4F2F
:1017A00081E090E0918380838091FA029091FB0226
:1017B0000196FC01EE0FFF1FEE0FFF1FEE0FFF1F44
:1017C0008E0F9F1F20912C0330912D03820F931FAA
:1017D000FC01EE0FFF1FEA5AFC4F808191810097B8
:1017E000F9F40E9483088091FA029091FB0201961D
:1017F000FC01EE0FFF1FEE0FFF1FEE0FFF1F8E0FFE
:101800009F1F20912C0330912D03820F931FFC0109
:10181000EE0FFF1FEA5AFC4F81E090E09183808336
:101820008091FA029091FB028930910559F5E0917F
:101830002C03F0912D03EE0FFF1FEA51FC4F808126
:1018400091810097F9F40E945F088091FA029091CB
:10185000FB020197FC01EE0FFF1FEE0FFF1FEE0FC3
:10186000FF1F8E0F9F1F20912C0330912D03820F9D
:10187000931FFC01EE0FFF1FEA5AFC4F81E090E03E
:10188000918380838091FA029091FB0281309105CF
:1018900059F5E0912C03F0912D03EE0FFF1FE65850
:1018A000FC4F808191810097F9F40E948308809118
:1018B000FA029091FB020196FC01EE0FFF1FEE0F62
:1018C000FF1FEE0FFF1F8E0F9F1F20912C033091E3
:1018D0002D03820F931FFC01EE0FFF1FEA5AFC4FEE
:1018E00081E090E09183808308950E940808089524
:1018F000CF93DF9384EB64EB0E9434030E94450393
:101900000E94E704809100049091010481309105C8
:1019100049F4C0E0D4E00E94E704888199818130D5
:101920009105C9F38FEF6FEF0E9434030E944903C2
:10193000DF91CF910895CF93DF9384EB64EB0E9406
:1019400034030E9441030E94E704809100049091B7
:1019500001048130910549F4C0E0D4E00E94E7041D
:101960008881998181309105C9F38FEF6FEF0E94D3
:1019700034030E944903DF91CF91089588E290E0FB
:101980000E9474040E94780C80912803909129038E
:1019900001969093290380932803089588E290E0AC
:1019A0000E9469040E949B0C80912603909127035A
:1019B000019690932703809326030895809128032E
:1019C000909129032091260330912703821B930BCA
:1019D0009093250380932403009739F08430910578
:1019E00021F02FEF8C3F9207B1F420912C0330911E
:1019F0002D032F5F3F4F30932D0320932C03109224
:101A000029031092280310922703109226031092A4
:101A10003503109234038130910521F02FEF8D3F73
:101A2000920781F42091FA023091FB022F5F3F4F21
:101A30003093FB022093FA0221E030E0309335032B
:101A4000209334032FEF8F3F920719F083309105D5
:101A500081F42091FA023091FB0221503040309302
:101A6000FB022093FA0223E030E030933503209309
:101A700034032FEF8E3F920719F08230910579F4ED
:101A800080912C0390912D03019790932D038093C7
:101A90002C0382E090E0909335038093340381E03F
:101AA00062E00E94EB0182E092E00E94DC01409142
:101AB000FA025091FB0281E061E021E030E00E94F7
:101AC0000B0281E064E00E94EB0184E092E00E945E
:101AD000DC0140912C0350912D0381E063E021E073
:101AE00030E00E940B0281E065E00E94EB0186E09D
:101AF00092E00E94DC01409134035091350381E073
:101B000066E021E030E00E940B0281E090E09093DB
:101B10001503809314030E9498020895809128036E
:101B2000909129032091260330912703821B930B68
:101B30009093250380932403009739F08430910516
:101B400021F02FEF8C3F920761F41092290310923D
:101B50002803109227031092260310923503109247
:101B600034038130910521F02FEF8D3F920731F43E
:101B700021E030E030933503209334032FEF8F3F83
:101B8000920719F08330910531F423E030E030936F
:101B90003503209334032FEF8E3F920719F08230E4
:101BA000910531F482E090E0909335038093340303
:101BB0000895CF93DF93C0E0D0E083E00E94CC048F
:101BC0008093310382E00E94CC048093300381E053
:101BD0000E94CC0480932F0310922E038091300337
:101BE000853148F081E080932E030E9439038AEF0B
:101BF0006AEF0E94340380913103843168F480914C
:101C00002E03882349F481E080932E030E94390338
:101C10008FEF63EC0E94340380912F03843168F4CA
:101C200080912E03882349F481E080932E030E9443
:101C3000390383EC6FEF0E943403809130038531C8
:101C400048F080913103853120F480912F03853154
:101C500008F02196C130D10509F0AFCF8FE590E0B3
:101C60000E9422040E94DE0CDF91CF91089520E0B3
:101C700030E04AE050E009C0119211920197E1F77B
:101C80002F5F3F4F2A30310581F0C901880F991F1E
:101C9000FC01EE0FFF1FEE0FFF1FEE0FFF1FE80FFF
:101CA000F91FEA5AFC4FCA01E7CF0895009799F44B
:101CB0002091FA023091FB023093210320932003FC
:101CC00020912C0330912D032F5F3F4F309323033E
:101CD000209322032AC08130910591F48091FA0269
:101CE0009091FB02019690932103809320038091B1
:101CF0002C0390912D039093230380932203089546
:101D00008230910591F48091FA029091FB029093B8
:101D100021038093200380912C0390912D03019740
:101D2000909323038093220308958330910589F4CF
:101D30008091FA029091FB02019790932103809386
:101D4000200380912C0390912D0390932303809383
:101D50002203089520913603309137032130310555
:101D600029F4809134039091350301962091380332
:101D7000309139032130310529F480913403909159
:101D8000350301978430910529F02FEF8F3F92079B
:101D900021F005C080E090E002C083E090E00E9466
:101DA000560E8091200390912103909343038093DA
:101DB000420380912203909123039093C104809366
:101DC000C004089521E030E049E050E009C01192DC
:101DD00011920197E1F72F5F3F4F2A303105A1F0B3
:101DE000C901880F991F820F931FFC01EE0FFF1F7F
:101DF000EE0FFF1FEE0FFF1FE81BF90BE20FF31FA3
:101E0000E65FFD4FCA01E3CF08958F929F92AF9294
:101E1000BF92CF92DF92EF92FF920F931F93CF93D7
:101E2000DF93CDB7DEB728970FB6F894DEBF0FBEAD
:101E3000CDBF6E010894C11CD11C760100E010E0FA
:101E40000F2EF8E0AF2EF2E0BF2EF02DC8010E9459
:101E5000560E4091200350912103CA01880F991F0B
:101E60009A01220F331F220F331F220F331F820FBD
:101E7000931F840F951F2091220330912303820F1B
:101E8000931F880F991F8A0D9B1DFC014081518172
:101E9000F701419351937F01602F6B5F82E021E056
:101EA00030E00E940B020F5F1F4F0430110571F6E6
:101EB00044E050E080E090E0F601219131916F0123
:101EC0002417350714F44C01A901019684309105BB
:101ED00099F78091340390913503F401EE0FFF1FC1
:101EE00021E030E02C0F3D1FE20FF31FDC01AA0FB1
:101EF000BB1FA20FB31F208131814D915C911197BF
:101F00002417350781F19C012F5F3F4F0197243043
:101F1000310511F420E030E04FEF8F3F940711F4CA
:101F200083E090E0F901EE0FFF1F21E030E02C0F7D
:101F30003D1FE20FF31FE080F180FC01EE0FFF1F59
:101F4000E20FF31F008111810E151F0514F40E948A
:101F5000CE0CE016F10614F40E94BE0CE016F10659
:101F600011F40E94BE0C28960FB6F894DEBF0FBE87
:101F7000CDBFDF91CF911F910F91FF90EF90DF9038
:101F8000CF90BF90AF909F908F9008954091FA02AC
:101F90005091FB0260912C0370912D039A01220F46
:101FA000331FCA01880F991F880F991F880F991F27
:101FB000820F931F480F591F640F751FFB01EE0F0F
:101FC000FF1FE85FFD4F808191810196918380839F
:101FD00008958091FA0280FD0AC080912C0380FF51
:101FE00006C082E090E090931303809312038091E7
:101FF000FA0280FF18C080912C0380FD0AC082E0A5
:1020000090E090931303809312038091FA0280FF73
:102010000AC080912C0380FF06C081E090E090937D
:1020200013038093120308950F931F93CF93DF93AD
:10203000C8E0D2E009E010E00E94050F0E948E0D7A
:102040000E940808282F392F309309042093080490
:102050002130310551F51092090410920804809145
:102060003403909135030E94560E40912003509105
:102070002103CA01880F991F9A01220F331F220FD3
:10208000331F220F331F820F931F480F591F609178
:10209000220370912303460F571FFA01EE0FFF1F13
:1020A000EC0FFD1F11830083C7CFDF91CF911F91EC
:1020B0000F9108951F920F920FB60F920BB60F92C9
:1020C00011242F933F934F935F936F937F938F933D
:1020D0009F93AF93BF93EF93FF932091C6002093FC
:1020E000BF042436D8F4822F6AE00E94D016392F1C
:1020F0009093B3041092B404822F64E60E94D01629
:10210000892F90E0831B91096AE070E00E94F0162D
:102110007093BA046093B9040E94D6008091BF0402
:10212000982F9456943638F46AE00E94D016909313
:10213000B5041092B604FF91EF91BF91AF919F91BA
:102140008F917F916F915F914F913F912F910F9060
:102150000BBE0F900FBE0F901F90189541155105A3
:1021600061F490934503809344039B012F5F3F4F9D
:102170003093C7042093C6041BC04130510551F46D
:10218000019690934503809344037093C704609332
:10219000C60408954230510559F490934503809345
:1021A0004403615070407093C7046093C60408955F
:1021B0004330510549F401979093450380934403BC
:1021C0007093C7046093C6040895CF93DF93609122
:1021D000B9047091BA044091B5045091B60480914D
:1021E000B3049091B4040E94AE1080914403909186
:1021F00045039093B2048093B1048091C6049091FA
:10220000C7049093CD048093CC04C0E0D0E06091EB
:10221000CC047091CD048091B1049091B204AE01D0
:102220000E94AE1020914403309145038091FA0240
:102230009091FB0228173907A1F42091C604309130
:10224000C70480912C0390912D032817390749F476
:102250000E94730781E090E090930D0380930C033C
:1022600008C010920D0310920C032196C430D105C2
:1022700071F681E090E090931503809314030E941F
:102280009802DF91CF9108958F929F92AF92BF9263
:10229000CF92DF92EF92FF920F931F93CF93DF9332
:1022A0008C01AA24BB240F2EF3E08F2E9924F02D4D
:1022B0000F2EF8E0CF2EF2E0DF2EF02D80913403C8
:1022C000909135039C012F5F3F4FEC012197243003
:1022D000310509F495014FEFCF3FD40709F4E4012C
:1022E0008017910709F45BC02017310719F40E9489
:1022F000BE0C52C0C017D10719F40E94CE0C4CC0BE
:10230000C9010E94560E4091200350912103CA0139
:10231000880F991F9A01220F331F220F331F220F9C
:10232000331F820F931F840F951F2091220330913A
:102330002303820F931F880F991F8C0D9D1DFC0195
:10234000E080F180CE010E94560E40912003509112
:102350002103CA01880F991F9A01220F331F220FF0
:10236000331F220F331F820F931F840F951F20915D
:10237000220330912303820F931F880F991F8C0D26
:102380009D1DFC01808191818E159F0518F40E948E
:10239000CE0C02C00E94BE0C0E948E0D8FCF0E94F8
:1023A0008E0DDF91CF911F910F91FF90EF90DF90F5
:1023B000CF90BF90AF909F908F90089525E030E030
:1023C000281B390B1AF4309521953F4F81E090E09E
:1023D000861B970B1AF4909581959F4F820F931F40
:1023E00008954F925F926F927F928F929F92AF92D9
:1023F000BF92CF92DF92EF92FF920F931F93CF93F2
:10240000DF93CDB7DEB728970FB6F894DEBF0FBEC7
:10241000CDBF4E010894811C911C5401EE24FF2471
:102420000F2EF8E06F2EF2E07F2EF02D8E2D9F2DD7
:102430000E94560E4091200350912103CA01880F3B
:10244000991F9A01220F331F220F331F220F331FB0
:10245000820F931F840F951F209122033091230335
:10246000820F931FFC01EE0FFF1FE60DF71D008189
:1024700011810115110591F48E2D9F2D0E94560E8C
:102480006091220370912303809120039091210396
:102490000E94DE11F5019183808318C08E2D9F2D3F
:1024A0000E94560E609122037091230380912003B5
:1024B000909121030E94DE119801220F331F220FF9
:1024C000331F280F391FF501318320830894E11C45
:1024D000F11C82E090E0A80EB91E94E0E916F10428
:1024E00009F0A4CF82E092E00E94DC0144E650E0D3
:1024F00080E090E0F401219131914F0124173507DC
:1025000018F4A901582E492E01968430910591F7AF
:10251000852D942D0E94441128960FB6F894DEBFA5
:102520000FBECDBFDF91CF911F910F91FF90EF9024
:10253000DF90CF90BF90AF909F908F907F906F90E3
:102540005F904F9008950F931F93CF93DF93C8E050
:10255000D2E008E010E00E94F1110E940808282F44
:10256000392F30930904209308042130310531F5C7
:1025700080913403909135030E94560E40912003C0
:1025800050912103CA01880F991F9A01220F331F0E
:10259000220F331F220F331F820F931F480F591F23
:1025A0006091220370912303460F571FFA01EE0F2B
:1025B000FF1FEC0FFD1F11830083CDCFDF91CF9163
:1025C0001F910F910895CF93DF930E94E20EC8E010
:1025D000D2E03DC08091FA029091FB0285309105D6
:1025E00039F480912C0390912D0381309105C9F12C
:1025F0000E94A3120E94D90D80911203909113039F
:102600008230910521F54091FA025091FB026091D0
:102610002C0370912D03CA01880F991F9A01220F74
:10262000331F220F331F220F331F820F931F840F7C
:10263000951F680F791FFB01EE0FFF1FEC0FFD1FA9
:10264000808191810196918380830E94D90D0E949F
:10265000E90F80911203909113038130910561F687
:10266000B9CFDF91CF910895F8940E942106789414
:102670000E94370E0E9434010E949C010E94D90DD5
:102680000E94E90F409112035091130381E068E02A
:1026900021E030E00E940B0280911203909113031D
:1026A0008130910521F40E9414100E94D90D80916F
:1026B0001203909113038230910531F40E94C60FEA
:1026C0000E94A7080E94D90D82E062E00E94EB01FF
:1026D00080911C0390911D030E94DC0180911A03DC
:1026E00090911B038031910559F60E94E3120E94DC
:1026F000490380E090E008955058BB27AA270ED0E8
:102700004DC13ED130F043D120F031F49F3F11F460
:102710001EF433C10EF4E095E7FB29C1E92F4FD138
:1027200080F3BA17620773078407950718F071F4EE
:102730009EF567C10EF4E0950B2EBA2FA02D0B016C
:10274000B90190010C01CA01A0011124FF27591BF6
:1027500099F0593F50F4503E68F11A16F040A22FFC
:10276000232F342F4427585FF3CF4695379527956D
:10277000A795F0405395C9F77EF41F16BA0B620B6C
:10278000730B840BBAF09150A1F0FF0FBB1F661FB3
:10279000771F881FC2F70EC0BA0F621F731F841FF6
:1027A00048F4879577956795B795F7959E3F08F01C
:1027B000B3CF9395880F08F09927EE0F97958795DB
:1027C00008950CD0EBC0E3D040F0DAD030F021F423
:1027D0005F3F19F0CCC0511115C1CFC0F0D098F3B4
:1027E0009923C9F35523B1F3951B550BBB27AA2792
:1027F00062177307840738F09F5F5F4F220F331F04
:10280000441FAA1FA9F333D00E2E3AF0E0E830D0CF
:1028100091505040E695001CCAF729D0FE2F27D0D2
:10282000660F771F881FBB1F261737074807AB07A0
:10283000B0E809F0BB0B802DBF01FF2793585F4F15
:102840002AF09E3F510568F092C0DCC05F3FECF378
:10285000983EDCF3869577956795B795F7959F5FDA
:10286000C9F7880F911D9695879597F90895E1E02E
:10287000660F771F881FBB1F621773078407BA078D
:1028800020F0621B730B840BBA0BEE1F88F7E095E8
:10289000089504D06894B111B5C0089598D088F017
:1028A0009F5790F0B92F9927B751A0F0D1F0660F3C
:1028B000771F881F991F1AF0BA95C9F712C0B13057
:1028C00081F09FD0B1E008959CC0672F782F8827B2
:1028D000B85F39F0B93FCCF3869577956795B39596
:1028E000D9F73EF490958095709561957F4F8F4F05
:1028F0009F4F0895E89409C097FB3EF4909580950A
:10290000709561957F4F8F4F9F4F9923A9F0F92FB5
:1029100096E9BB279395F695879577956795B79533
:10292000F111F8CFFAF4BB0F11F460FF1BC06F5F19
:102930007F4F8F4F9F4F16C0882311F096E911C02B
:10294000772321F09EE8872F762F05C0662371F04C
:1029500096E8862F70E060E02AF09A95660F771F60
:10296000881FDAF7880F9695879597F9089597F954
:102970009F6780E870E060E008959FEF80EC089525
:1029800000240A941616170618060906089500244E
:102990000A9412161306140605060895092E0394C8
:1029A000000C11F4882352F0BB0F40F4BF2B11F43C
:1029B00060FF04C06F5F7F4F8F4F9F4F089557FD9B
:1029C0009058440F551F59F05F3F71F04795880F9D
:1029D00097FB991F61F09F3F79F087950895121634
:1029E00013061406551FF2CF4695F1DF08C01616E0
:1029F00017061806991FF1CF869571056105089491
:102A00000895E894BB2766277727CB0197F90895A7
:102A10000BD0C4CFB5DF28F0BADF18F0952309F04A
:102A2000A6CFABCF1124EECFCADFA0F3959FD1F391
:102A3000950F50E0551F629FF001729FBB27F00D6C
:102A4000B11D639FAA27F00DB11DAA1F649F6627C1
:102A5000B00DA11D661F829F2227B00DA11D621F10
:102A6000739FB00DA11D621F839FA00D611D221FCA
:102A7000749F3327A00D611D231F849F600D211DAE
:102A8000822F762F6A2F11249F5750408AF0E1F051
:102A900088234AF0EE0FFF1FBB1F661F771F881F9A
:102AA00091505040A9F79E3F510570F060CFAACFDA
:102AB0005F3FECF3983EDCF3869577956795B79585
:102AC000F795E7959F5FC1F7FE2B880F911D9695AF
:102AD000879597F90895FA01EE0FFF1F30962105AB
:102AE000310599F16115710561F48038BFE39B07E9
:102AF00049F168949038810561F08038BFEF9B07F9
:102B000041F0992342F5FF3FE1053105210511F11F
:102B1000E8940894E795D901AA2329F4AB2FBE2F96
:102B2000F85FD0F310C0FF5F70F4A695E0F7F739B7
:102B300050F019F0FF3A38F49F779F930CD00F9024
:102B400007FC905808953EF018CF60E070E080E8F0
:102B50009FE308954FE79F775F934F933F932F93A2
:102B60009ED02F913F914F915F9152DF05C019F494
:102B70000EF0FDCE46CF01CF2ADFC8F39638C0F75E
:102B800007F80F92E8942BE33AEA48EB5FE74EDF51
:102B90000F920F920F924DB75EB70F92C0D0E4EE36
:102BA000F0E016D04F915F91EF91FF91E595EE1F08
:102BB000FF1F49F0FE57E0684427EE0F441FFA95C7
:102BC000E1F74195550B32D00F9007FE26C00895CE
:102BD000DF93CF931F930F93FF92EF92DF927B01CE
:102BE0008C01689405C0DA2EEF011EDFFE01E89427
:102BF000A5912591359145915591AEF3EF018EDD6B
:102C0000FE019701A801DA9479F7DF90EF90FF9029
:102C10000F911F91CF91DF9108959B01AC0160E06E
:102C200070E080E89FE3CDCDA2CEACC0D0DEE8F36B
:102C30009923D9F3940F511DBBF39150504094F058
:102C400059F0882332F0660F771F881F915050404B
:102C5000C1F79E3F510544F7880F911D96958795C2
:102C600097F908955F3FACF0983E9CF0BB2786959E
:102C700077956795B79508F4B1609395C1F7BB0F49
:102C800058F711F460FFE8CF6F5F7F4F8F4F9F4F72
:102C9000E3CFB8CE0EF076C070CE689468CE97DEE3
:102CA000C8F39923D1F3C6F3DF93CF931F930F9308
:102CB000FF92C92FDD2788232AF02197660F771FFF
:102CC000881FDAF720E030E040E85FEB9FE38839C7
:102CD00020F0803E30F021968F770FDDECE0F1E0C0
:102CE00003C00BDDE9E3F1E073DF8B01BE01EC0112
:102CF000FB2E6F5771097595771F880B990BFCDDBB
:102D000028E132E741E35FE38FDEAF2D9801AE01AA
:102D1000FF900F911F91CF91DF9100DD3FCEFA011F
:102D2000DC01AA0FBB1F9B01AC01BF5728F422276F
:102D30003327442750781FC0B75188F4AB2F0024A5
:102D4000469537952795011CA395D2F3002069F08D
:102D5000220F331F441FB395DAF30DD0CDCC613071
:102D60007105A0E88A07B94630F49B01AC016627DB
:102D7000772788279078309621F02083318342830B
:102D8000538308959F3F31F0915020F487957795B4
:102D90006795B795880F911D9695879597F9089532
:102DA000991B79E004C0991F961708F0961B881F9D
:102DB0007A95C9F780950895AA1BBB1B51E107C0FE
:102DC000AA1FBB1FA617B70710F0A61BB70B881FBB
:102DD000991F5A95A9F780959095BC01CD0108954A
:102DE00097FB092E07260AD077FD04D0E5DF06D031
:102DF00000201AF4709561957F4F0895F6F790952D
:0A2E000081959F4F0895F894FFCFCD
:102E0A007700780079006F000900090009000900BD
:102E1A000900090009000900090009000900090060
:102E2A000000000000000000000000000000000098
:102E3A000000090009000000000000000000000076
:102E4A000000000000000000090009000000000066
:102E5A00000000000000000000000000000009005F
:102E6A00090000000000000000000000000000004F
:102E7A000000000009000900000000000000000036
:102E8A000000000000000000000009000900000026
:102E9A000000000000000000000000000000000028
:102EAA000900090000000000000000000000000006
:102EBA0000000000000009000900000000000000F6
:102ECA0000000000000000000000000009000900E6
:102EDA0000000000000000000000000000000000E8
:102EEA000000090009000900090009000900090099
:102EFA000900090009000900090005002D005A000F
:0C2F0A00C80064005E01C800FA00EA0183
:00000001FF
