:100000000C94B3000C947D030C94D4000C94D40095
:100010000C94D4000C9458030C9433030C94D40027
:100020000C94D4000C94D4000C94D4000C94D40000
:100030000C94D4000C94D4000C94D4000C94D400F0
:100040000C94D4000C94D4000C94D4000C94D400E0
:100050000C94D4000C94D4000C94D4000C94D400D0
:100060000C94D4000C94980A0C94D4000C94D400F2
:100070000C94D4000C94D4000C94D4000C94D400B0
:100080000C94D4000C94D4000C94D4000C94D400A0
:100090000C94D4000C94D4000C94D4000C94D40090
:1000A0000C94D4000C94D4000C94D4000C94D40080
:1000B0000C94D4000C94D4000C94D4000C94D40070
:1000C0000C94D4000C94D4000C94D4000C94D40060
:1000D0000C94D4000C94D4000C94D4000C94D40050
:1000E0000C94D40007634236B79BD8A71A396856D8
:1000F00018AEBAAB558C1D3CB7CC5763BD6DEDFD4A
:10010000753EF6177231BF000000803F0800000006
:10011000BE922449123EABAAAA2ABECDCCCC4C3EFC
:1001200000000080BEABAAAAAA3E00000000BF00EB
:100130000000803F0000000000084178D3BB4387E7
:10014000D1133D190E3CC3BD4282AD2B3E68EC82FB
:1001500076BED98FE1A93E4C80EFFFBE01C4FF7F80
:100160003F000000000011241FBECFEFD1E2DEBF30
:10017000CDBF00E00CBF14E0A0E0B2E0E8E1FAE29D
:1001800000E00BBF02C007900D92A430B107D9F771
:1001900016E0A4E0B4E001C01D92AC31B107E1F774
:1001A0000E94D5100C940A150C940000CF93DF9395
:1001B000E0910306F0910406E436F105C8F4CAE0C4
:1001C000D0E0CF01BE010E94F6149C0190930F0471
:1001D00080930E04CF0164E670E00E94F614821B47
:1001E000930BBE010E94F6147093110460931004E7
:1001F000CF01845690408436910528F52AE030E0FE
:10020000CF01B9010E94F614EC019093130480937E
:100210001204CF0164E670E00E94F6148C1B9D0B63
:10022000B9010E94F6146093140470931504D093DE
:100230009304C0939204609390047093910410927D
:10024000020610920106CF01885C90408436910529
:10025000F0F52AE030E0CF01B9010E94F614EC017C
:100260009093170480931604CF0164E670E00E9417
:10027000F6148C1B9D0BB9010E94F61460931804B0
:10028000E6E1F4E0738340910C0450910D04CA013F
:10029000880F991FFC01EC5BFB4F209110043091FB
:1002A000110431832083FC01EE5CFB4F20910E048E
:1002B00030910F0431832083FC01E05EFB4F6083AB
:1002C00071834F5F5F4F50930D0440930C04DF9197
:1002D000CF91089586E69EE00197F1F700004098DF
:1002E000419880E388B9429AEFEFF7E43197F1F74C
:1002F00000C000004298E6E6FEE03197F1F700000A
:100300004098419888B9429AEFEFF7E43197F1F7B6
:1003100000C000004298E6E6FEE03197F1F70000E9
:100320004098419888B9429A8FEF97E40197F1F786
:1003300000C000004298E6E6FEE03197F1F70000C9
:100340004098419880E288B9429A8FEF97E40197EC
:10035000F1F700C000004298089598B19F7098B9D5
:1003600098B1282F207F922B98B940984198429AB3
:10037000EFEFF7E43197F1F700C00000429898B131
:100380009F7098B998B18295807F892B88B94098E1
:100390004198429A8FEF97E40197F1F700C000006F
:1003A000429808950E946A0186E69EE00197F1F75F
:1003B000000088E20E94AD0181E00E94AD0186E06C
:1003C0000E94AD018EE00E94AD0180E80E94AD0167
:1003D000089598B19F7098B998B1282F207F922BDB
:1003E00098B9409A4198429AEFEFF7E43197F1F7C4
:1003F00000C00000429898B19F7098B998B182955A
:10040000807F892B88B9409A4198429A8FEF97E470
:100410000197F1F700C000004298089580E80E941B
:10042000AD010895CF93DF93EC018881882331F0EB
:1004300021960E94E90189918823D9F7DF91CF9114
:100440000895823079F0833018F48130C9F405C002
:10045000833069F08430A1F40FC0862F81580E9448
:10046000AD010895862F81540E94AD010895862F15
:100470008D560E94AD010895862F8D520E94AD01C8
:1004800008950F931F93CF93DF938A01E901882387
:1004900011F0662319F40E940E0202C00E9421028C
:1004A000C530D10571F4C80160E177E20E94F6140D
:1004B000CB01C09690939704809396040E94E90123
:1004C00003C0C430D105B9F4C80168EE73E00E94DE
:1004D000F614CB0170933B0560933A056AE070E037
:1004E0000E94F614C09690931706809316060E94F9
:1004F000E90181E001C080E0C330D10511F0813015
:10050000B1F4C80164E670E00E94F614CB01709368
:100510003B0560933A056AE070E00E94F614C096CD
:100520009093100680930F060E94E90181E0C2308B
:10053000D10511F08130B1F42AE030E0C801B901F1
:100540000E94F614CB0170933B0560933A05B90104
:100550000E94F614C0969093F6058093F5050E94CC
:10056000E90181E0C130D10511F0813061F4C801A9
:100570006AE070E00E94F614C0969093150680938E
:1005800014060E94E901C630D1051CF085E40E94E2
:10059000E901DF91CF911F910F91089592B1907F62
:1005A0008F70982B92B9089581B18F6081B982B113
:1005B000807F82B9EAE0F1E0808188618083EBE0AE
:1005C000F1E08081886180830895E1E2F1E01082AA
:1005D0008FEF8093250191E09093240110922901DF
:1005E0008093280110922B0180932A0110922D01F3
:1005F00080932C0189EA809320018BE08083089509
:10060000825380932801625360932A01089586E003
:100610000E94CE02089589E00E94CE02089585E0EE
:100620000E94CE0208958AE00E94CE02089580E0E2
:100630000E94CE0208956C98749A08956D98759AE8
:100640000895F894EAE6F0E0808182608083EC9A75
:1006500078940895F894EAE6F0E0808188608083D9
:10066000ED9A789408951F920F920FB60F9211246D
:100670008F939F93AF93BF93809172049091730473
:10068000A0917404B09175040196A11DB11D8093D1
:10069000720490937304A0937404B0937504BF9193
:1006A000AF919F918F910F900FBE0F901F90189553
:1006B0001F920F920FB60F9211248F939F93AF93B7
:1006C000BF938091760490917704A0917804B091C3
:1006D00079040196A11DB11D80937604909377044F
:1006E000A0937804B0937904BF91AF919F918F91BB
:1006F0000F900FBE0F901F9018951F920F920FB67C
:100700000F9211248F939F93AF93BF9380915604C0
:1007100090915704A0915804B09159040196A11DDD
:10072000B11D8093560490935704A0935804B0933E
:100730005904BF91AF919F918F910F900FBE0F9071
:100740001F9018950F931F93CF93BC0180E090E00A
:100750000E94A01228E431EE42E850E40E94071201
:100760000E947412DC01CB01A0E0B0E01092720490
:10077000109273041092740410927504109276040F
:10078000109277041092780410927904F1E0C0E09E
:1007900040917204509173046091740470917504D7
:1007A00000917604109177042091780430917904B7
:1007B000EF2F481759076A077B0708F4EC2FEE2341
:1007C00049F44F2F081719072A073B0708F44C2F45
:1007D0004423F1F20E941703CF911F910F910895C6
:1007E000BC0180E090E00E94A01225EE30ED4AEAC4
:1007F00050E40E9407120E947412462F572F682F50
:10080000792F109272041092730410927404109253
:100810007504109276041092770410927804109266
:1008200079048091760490917704A0917804B09136
:100830007904481759076A077B0798F70E9417033E
:100840000895CF93DF93EC010E940703CE010E942D
:10085000F003DF91CF910895CF93DF93EC010E94D5
:100860000B03CE010E94F003DF91CF910895CF9347
:10087000DF93EC010E940F03CE010E94A203DF91DF
:10088000CF910895CF93DF93EC010E941303CE0123
:100890000E94A203DF91CF91089587B1876F87B936
:1008A00088B1807888B90895259A2D9A0895269A56
:1008B0002E9A0895279A2F9A0895E1E8F0E0108281
:1008C0008CEF8093850081E08093840093E0909387
:1008D00089008FEF8093880090938B0080938A002B
:1008E00090938D0080938C00909387008093860076
:1008F0008BEA80938000109282008CE080830895C0
:100900003B9A4398089586B1886088B9089586B166
:10091000877F88B9089510BA11BAEAE7F0E010822B
:1009200010927B0080E280937C0080E880BF86E8A4
:1009300080830895883018F098E090937B0087704A
:10094000806280937C00EAE7F0E0808180648083AD
:10095000808184FFFDCF80917900EAE7F0E090810B
:100960009061908310927B000895CF93DF9383E092
:100970000E949A04D82F82E00E949A04C82F81E036
:100980000E949A04D43138F421E030E030933F05DE
:1009900020933E0504C010923F0510923E05C431DD
:1009A00038F421E030E0309341052093400504C045
:1009B0001092410510924005843138F481E090E0B6
:1009C000909343058093420504C010924305109212
:1009D0004205DF91CF91089510920701109208010E
:1009E00008953B9A43980895CF93DF93D82FC62F4D
:1009F000842F0E949A04482F8093F0058D2F6C2F2E
:100A000050E023E030E00E944102DF91CF91089551
:100A10000F931F93682F70E080E090E00E94A01277
:100A20002FEE39EC43E95FE30E949113B62FA72F15
:100A3000382F292F60E070E080E89FE3422F0B2FD2
:100A40001A2F232F342FA90198010E9407122AE997
:100A500039EF4EE255E40E942E1320E030E040E2F0
:100A600051E40E942E130E946F12882777FD809513
:100A7000982F0E94A2120E946F12862F972F23E0B8
:100A80008132920710F080E293E01F910F91089558
:100A90008AB18E6F8AB9589A0895E2E0F1E08081B8
:100AA0008F798083A198EBE0F1E080818F7780835C
:100AB0000895E1E0F1E0808180668083999AEAE020
:100AC000F1E08081806880830E944D0508950E9436
:100AD0004D05E2E0F1E080818062808308950E940C
:100AE0004D05E2E0F1E080818064808308950E94FA
:100AF0004D05EBE0F1E08081806880830895E1ECB2
:100B0000F0E010821092C00086E08093C2008FE572
:100B10008093C4001092C50088E9808308950E94E4
:100B200067058FEF9FEFACE281509040A040E1F766
:100B300000C000000E946F058FEF9FEFACE2815074
:100B40009040A040E1F700C000000E9477058FEFC1
:100B50009FEFACE281509040A040E1F700C0000060
:100B6000DECF0E94D4020E94F1040E941B030E9467
:100B70001E030E9421030E942A030E948B040E94EC
:100B80004D040E94E5020E9459050E947F050E94C3
:100B900054040E9457040E945A040E945D04089560
:100BA00010928900682F70E080E090E00E94A0120F
:100BB0002BE734E14EEE5FE30E94071220E030E0C5
:100BC0004CE052E40E94A3110E94741260938800CA
:100BD000089510928B00682F70E080E090E00E94F2
:100BE000A0122BE734E14EEE5FE30E94071220E0F3
:100BF00030E04CE052E40E94A3110E947412609312
:100C00008A00089510928D00682F70E080E090E0D7
:100C10000E94A0122BE734E14EEE5FE30E94071220
:100C200020E030E04CE052E40E94A3110E947412D4
:100C300060938C00089583E0809389008FEF809308
:100C40008800089583E080938B008FEF80938A0063
:100C5000089583E080938D008FEF80938C0008953A
:100C60000E9483048FEF9FEFACE281509040A04040
:100C7000E1F700C000000E94870408950E948304E9
:100C80008FEF9FEFA6E7B1E081509040A040B040C9
:100C9000D9F700C000000E94870408950F931F93A6
:100CA000CF93DF9388EC68EC0E9400030E9413034B
:100CB000C5EBD4E0FE011995809140059091410566
:100CC0008130910551F400E415E0FE011995F80119
:100CD0008081918181309105C1F38FEF6FEF0E9488
:100CE00000030E941703DF91CF911F910F91089588
:100CF0000F931F93CF93DF9388EC68EC0E9400035F
:100D00000E940F03C5EBD4E0FE01199580914005C8
:100D1000909141058130910551F400E415E0FE0108
:100D20001995F8018081918181309105C1F38FEF90
:100D30006FEF0E9400030E941703DF91CF911F9174
:100D40000F91089588E290E00E9442040E944E06AE
:100D5000089588E290E00E9437040E947806089582
:100D6000CF93DF93C6E0D0E08BE00E949A0480939B
:100D700011060E940805AC0190931B0680931A0689
:100D800082E061E023E030E00E944102219761F7B8
:100D900020911A0630911B062353304081E090E0E9
:100DA0002138310510F080E090E0DF91CF91089577
:100DB0008AE590E00E9442040E94B00690936F047E
:100DC00080936E040E94A90680915A0490915B045E
:100DD000019690935B0480935A0410926F041092D2
:100DE0006E0408958AE590E00E9437040E94B006E0
:100DF00090937104809370040E94A20680915A041B
:100E000090915B04019690935B0480935A04109236
:100E100071041092700408950E94B0060895CF9353
:100E2000DF9386E966E90E9400030E9413030E9493
:100E3000B50480914005909141058130910549F4B8
:100E4000C0E4D5E00E94B504888199818130910584
:100E5000C9F38FEF6FEF0E9400030E941703DF9129
:100E6000CF910895CF93DF9386E966E90E9400034E
:100E70000E940F030E94B5048091400590914105A6
:100E80008130910549F4C0E4D5E00E94B504888121
:100E9000998181309105C9F38FEF6FEF0E940003B4
:100EA0000E941703DF91CF91089588E290E00E949D
:100EB00042040E940F07809164049091650401969A
:100EC0009093650480936404089588E290E00E9402
:100ED00037040E9432078091F9039091FA0301963A
:100EE0009093FA038093F90308958091640490919C
:100EF00065042091F9033091FA03821B930B9093C0
:100F0000630480936204009739F08430910521F0E6
:100F10002FEF8C3F9207B1F42091FB033091FC033B
:100F20002F5F3F4F3093FC032093FB031092650427
:100F3000109264041092FA031092F90310920204C2
:100F4000109201048130910521F02FEF8D3F92071F
:100F500081F42091FD033091FE032F5F3F4F3093CA
:100F6000FE032093FD0321E030E030930204209340
:100F700001042FEF8F3F920719F08330910581F420
:100F80002091FD033091FE03215030403093FE0349
:100F90002093FD0323E030E030930204209301040A
:100FA0002FEF8E3F920719F08230910579F48091EE
:100FB000FB039091FC0301979093FC038093FB0348
:100FC00082E090E090930204809301040895809160
:100FD0006404909165042091F9033091FA03821B17
:100FE000930B9093630480936204009739F08430EC
:100FF000910521F02FEF8C3F920761F41092650468
:10100000109264041092FA031092F90310920204F1
:10101000109201048130910521F02FEF8D3F92074E
:1010200031F421E030E030930204209301042FEFEB
:101030008F3F920719F08330910531F423E030E0BF
:1010400030930204209301042FEF8E3F920719F092
:101050008230910531F482E090E090930204809315
:1010600001040895CF93DF93C0E0D0E00E94BE0951
:1010700083E00E949A0480936B0482E00E949A04A9
:1010800080936A0481E00E949A048093690410921C
:10109000680480916A04833348F081E08093680497
:1010A0000E9407038AEF6AEF0E94000380916B049D
:1010B000883268F480916804882349F481E0809341
:1010C00068040E94070384E06FEA0E940003809195
:1010D0006904883268F480916804882349F481E0C7
:1010E000809368040E9407038FEA64E00E94000373
:1010F00080916A04893248F080916B04893220F42F
:1011000080916904893208F02196C130D10509F037
:10111000ADCF81E490E00E94F0030E947507DF915B
:10112000CF91089521E030E049E050E009C01192EC
:1011300011920197E1F72F5F3F4F2A303105A1F05F
:10114000C901880F991F820F931FFC01EE0FFF1F2B
:10115000EE0FFF1FEE0FFF1FE81BF90BE20FF31F4F
:10116000E95EFD4FCA01E3CF0895009799F42091FD
:10117000FD033091FE0330935F0420935E042091C1
:10118000FB033091FC032E5F3F4F309361042093AB
:1011900060042AC08130910591F48091FD03909103
:1011A000FE03029690935F0480935E048091FB039C
:1011B0009091FC03909361048093600408958230C1
:1011C000910591F48091FD039091FE0390935F044B
:1011D00080935E048091FB039091FC0302979093AF
:1011E00061048093600408958330910589F48091AF
:1011F000FD039091FE03029790935F0480935E0439
:101200008091FB039091FC039093610480936004B0
:1012100008954115510561F490930E0680930D06D3
:101220009B012F5F3F4F3093F2052093F1051BC0C8
:101230004130510551F4019690930E0680930D06AE
:101240007093F2056093F10508954230510559F409
:1012500090930E0680930D06615070407093F205D6
:101260006093F10508954330510549F40197909337
:101270000E0680930D067093F2056093F1050895B4
:101280008091FD0380FD05C08091FB0380FD12C0AD
:10129000089582E090E090931B0480931A0480915B
:1012A000FB0380FF0DC081E090E090931B048093CE
:1012B0001A04089582E090E090931B0480931A042E
:1012C00008952FEF8F3F920711F483E090E0089587
:1012D0000E946109009799F42091FD033091FE036B
:1012E00030935F0420935E042091FB033091FC0354
:1012F0002F5F3F4F30936104209360042AC08130F8
:10130000910591F48091FD039091FE0301969093D5
:101310005F0480935E048091FB039091FC039093A3
:1013200061048093600408958230910591F4809166
:10133000FD039091FE0390935F0480935E0480917F
:10134000FB039091FC0301979093610480936004E8
:1013500008958330910589F48091FD039091FE03F7
:10136000019790935F0480935E048091FB039091BA
:10137000FC0390936104809360040895CF93DF93FE
:1013800081E090E090930206809301068091010431
:10139000909102040E946809209190043091910478
:1013A00080915E0490915F0428173907C9F4209159
:1013B0009204309193048091600490916104281705
:1013C000390771F48091010690910206009741F06F
:1013D0000E94170380910106909102060097C1F7C1
:1013E000809101049091020401960E946809209165
:1013F00090043091910480915E0490915F042817CD
:101400003907C9F4209192043091930480916004CB
:10141000909161042817390771F480910106909129
:101420000206009741F00E941703809101069091F7
:1014300002060097C1F78091010490910204019780
:101440000E946809209190043091910480915E047B
:1014500090915F0428173907C9F4209192043091C4
:10146000930480916004909161042817390771F406
:101470008091010690910206009741F00E941703A7
:1014800080910106909102060097C1F780910104B6
:10149000909102040E946809C0E0D0E0609160046D
:1014A0007091610480915E0490915F04AE010E948E
:1014B0000909209190043091910480910D0690913A
:1014C0000E0628173907C9F420919204309193042D
:1014D0008091F1059091F2052817390771F48091F8
:1014E000010690910206009741F00E941703809137
:1014F0000106909102060097C1F72196C430D105EC
:1015000069F6DF91CF9108950895809101048C5977
:10151000E6ECF0E080838091FB03880F982F990F11
:10152000990F890F9091FD03890F80830895089585
:101530001F920F920FB60F920BB60F9211242F939A
:101540003F934F935F936F937F938F939F93AF934B
:10155000BF93EF93FF938091C60080930306109290
:1015600004060E94D600FF91EF91BF91AF919F9129
:101570008F917F916F915F914F913F912F910F903C
:101580000BBE0F900FBE0F901F9018958091010415
:10159000909102040E94680980915E0490915F041A
:1015A000FC01EE0FFF1F9C01220F331F220F331F80
:1015B000220F331FE20FF31F8E0F9F1F2091600435
:1015C00030916104820F931FFC01EE0FFF1FE95F52
:1015D000FC4F88E090E091838083089580910A0415
:1015E00090910B04880F991FFC01EC5BFB4F20814D
:1015F00031813093FA052093F9058E5C9B4FFC01F5
:1016000080819181AC014F5F5F4F50938304409381
:101610008204A9014F5F5F4F5093FC054093FB0587
:1016200090938504809384043093FE052093FD05F8
:10163000AC014150504050938704409386042150A0
:101640003040309300062093FF05909389048093E7
:1016500088040895CF93DF93809101049091020450
:1016600001960E9461090E94680980910A04909184
:101670000B04FC01EE0FFF1FEC5BFB4F408151811F
:1016800020915E0430915F044217530789F4FC01F6
:10169000EE0FFF1FEE5CFB4F2081318180916004D3
:1016A000909161042817390731F0C0E0D0E005C0FF
:1016B000C0E0D0E002C0CFEFDFEF80910104909155
:1016C000020401970E9461090E94680940910A047E
:1016D00050910B04FA01EE0FFF1FEC5BFB4F2081D2
:1016E000318180915E0490915F042817390771F46D
:1016F000FA01EE0FFF1FEE5CFB4F208131818091DC
:101700006004909161042817390769F08FEFCF3F8B
:10171000D80789F48AE590E00E9442040E943006CE
:101720000E94A90608C08AE590E00E9437040E9442
:1017300030060E94A206DF91CF91089586E990E0DD
:101740000E9421040E944D050E9430068FEF9FEFFA
:10175000A0EE81509040A040E1F700C0000088E773
:1017600090E00E942C040895CF93DF9380910104B0
:101770009091020401960E9461090E94680980917B
:101780005E0490915F048A30910551F48091600469
:10179000909161048530910531F0C0E0D0E005C042
:1017A000C0E0D0E002C0CFEFDFEF80910104909164
:1017B000020401970E9461090E94680980915E04F9
:1017C00090915F048A30910539F480916004909182
:1017D00061048530910591F0209719F40E949E0BC9
:1017E0001AC08FEFCF3FD80759F48AE590E00E94E6
:1017F00042040E949E0B0E94A9060DC0C1E0D0E0E9
:10180000C130D10541F48AE590E00E9437040E947E
:101810009E0B0E94A206DF91CF9108958F929F9216
:10182000AF92BF92CF92DF92EF92FF920F931F93EE
:10183000CF93DF938C01AA24BB240F2EF3E08F2ECD
:101840009924F02D0F2EF7E0CF2EF3E0DF2EF02DB0
:1018500080910104909102049C012F5F3F4FEC01A5
:1018600021972430310509F495014FEFCF3FD4077C
:1018700009F4E4018017910709F45BC020173107D0
:1018800019F40E94550752C0C017D10719F40E94DD
:1018900065074CC0C9010E94680940915E045091DF
:1018A0005F04CA01880F991F9A01220F331F220F6C
:1018B000331F220F331F820F931F840F951F209118
:1018C000600430916104820F931F880F991F8C0D63
:1018D0009D1DFC01E080F180CE010E9468094091CD
:1018E0005E0450915F04CA01880F991F9A01220F6C
:1018F000331F220F331F220F331F820F931F840FBA
:10190000951F2091600430916104820F931F880F0E
:10191000991F8C0D9D1DFC01808191818E159F0565
:1019200018F40E94650702C00E9455070E94E7074D
:101930008FCF0E94E707DF91CF911F910F91FF900A
:10194000EF90DF90CF90BF90AF909F908F900895D1
:1019500029E030E0281B390B1AF4309521953F4FD0
:1019600085E090E0861B970B1AF4909581959F4F28
:10197000820F931F089520910A0430910B04F901FE
:10198000EE0FFF1FEC5BFB4F40815181FA01E81B1A
:10199000F90BCF011AF4909581959F4FF901EE0F45
:1019A000FF1FEE5CFB4F20813181261B370B1AF4A1
:1019B000309521953F4F820F931F08952F923F92AC
:1019C0004F925F926F927F928F929F92AF92BF924F
:1019D000CF92DF92EF92FF920F931F93CF93DF93FB
:1019E000CDB7DEB728970FB6F894DEBF0FBECDBFD8
:1019F0004E010894811C911C5401EE24FF240F2EEB
:101A0000F5E16F2EF2E07F2EF02D0F2EF7E04F2E36
:101A1000F3E05F2EF02D8E2D9F2D0E9468094091DE
:101A20005E0450915F046091600470916104CA018A
:101A3000880F991F9A01220F331F220F331F220F85
:101A4000331F820F931F840F951F860F971F880FD8
:101A5000991FF301E80FF91F840D951D0081118175
:101A6000FC0180819181080F191F0115110591F466
:101A70008E2D9F2D0E94B5086091600470916104C5
:101A800080915E0490915F040E94BB0CF5019183EC
:101A9000808318C08E2D9F2D0E94B5086091600430
:101AA0007091610480915E0490915F040E94BB0C70
:101AB0009801220F331F200F311F820F931FF50152
:101AC000918380830894E11CF11C82E090E0A80ED1
:101AD000B91E94E0E916F10409F09DCF44E650E008
:101AE00080E090E0F401219131914F0124173507F6
:101AF00018F4A901382E292E01968430910591F70A
:101B0000832D922D0E940E0C28960FB6F894DEBFFE
:101B10000FBECDBFDF91CF911F910F91FF90EF903E
:101B2000DF90CF90BF90AF909F908F907F906F90FD
:101B30005F904F903F902F9008952F923F924F9239
:101B40005F926F927F928F929F92AF92BF92CF924D
:101B5000DF92EF92FF920F931F93CF93DF93CDB756
:101B6000DEB728970FB6F894DEBF0FBECDBF4E018B
:101B70000894811C911C5401EE24FF240F2EF5E1E2
:101B80006F2EF2E07F2EF02D0F2EF7E04F2EF3E0B8
:101B90005F2EF02D8E2D9F2D0E94680940915E04CE
:101BA00050915F046091600470916104CA01880FD4
:101BB000991F9A01220F331F220F331F220F331F49
:101BC000820F931F840F951F860F971F880F991FF1
:101BD000F301E80FF91F840D951D00811181FC01AF
:101BE00080819181080F191F0115110591F48E2D27
:101BF0009F2D0E946809609160047091610480913A
:101C00005E0490915F040E94A80CF501918380838B
:101C100018C08E2D9F2D0E946809609160047091FC
:101C2000610480915E0490915F040E94A80C980169
:101C3000220F331F220F331F820F931FF501918351
:101C400080830894E11CF11C82E090E0A80EB91E8C
:101C500094E0E916F10409F09DCF80E092E00E9443
:101C6000120244E650E080E090E0F40121913191CD
:101C70004F012417350718F4A901382E292E019693
:101C80008430910591F7832D922D0E940E0C289699
:101C90000FB6F894DEBF0FBECDBFDF91CF911F917D
:101CA0000F91FF90EF90DF90CF90BF90AF909F90FB
:101CB0008F907F906F905F904F903F902F900895FE
:101CC000CF92DF92EF92FF920F931F93CF93DF9308
:101CD000C2E0D2E00F2EF7E0CF2EF2E0DF2EF02DA3
:101CE00007E013E00F2EF7E0EF2EFF24F02D81E048
:101CF0006AE00E94210280910404909105040097FB
:101D000029F4CE010E9412020E94DE0C809104048C
:101D1000909105048130910529F4C6010E941202B8
:101D20000E949D0D0E94B006282F392F3093470541
:101D3000209346052130310531F5809101049091C1
:101D400002040E94680940915E0450915F04CA0138
:101D5000880F991F9A01220F331F220F331F220F62
:101D6000331F820F931F840F951F209160043091C1
:101D70006104820F931FFC01EE0FFF1FE00FF11FA4
:101D8000F182E082B4CFDF91CF911F910F91FF904C
:101D9000EF90DF90CF9008956F927F928F929F92F5
:101DA000AF92BF92CF92DF92EF92FF920F931F9369
:101DB000CF93DF9380910A0490910B049C012F5FD5
:101DC0003F4F029605E010E040E254E0220F331F3F
:101DD0006A01C20ED31E880F991F7A01E80EF91E00
:101DE00056010F2EF4E48F2EF4E09F2EF02D820E7C
:101DF000931E0F2EF2E36F2EF4E07F2EF02D620E75
:101E0000731EF60120813181F70180819181009755
:101E100059F1F501D401E30182179307E0F412961A
:101E20004D915C9113976A817B812081318133834D
:101E300022832D913C91119713963C932E931297E8
:101E4000288139813B832A839183808311965C9317
:101E50004E93798368832281338184819581329680
:101E6000129622960097C1F60150104051F6DF916C
:101E7000CF911F910F91FF90EF90DF90CF90BF9087
:101E8000AF909F908F907F906F9008950F931F93C6
:101E9000CF93DF9381E090E0909305048093040456
:101EA0000E9492080E94320801E010E0C5E1D2E0F1
:101EB0000E94400980911A0490911B048130910581
:101EC00021F40E94600E0E94320880911A049091C1
:101ED0001B048230910561F70E94850A4091FD0341
:101EE0005091FE036091FB037091FC03CA01880FBF
:101EF000991F9A01220F331F220F331F220F331F06
:101F0000820F931F840F951F860F971FFC01EE0F02
:101F1000FF1FEC0FFD1F80819181019691838083CB
:101F20000E9432088091FD039091FE038930910553
:101F300039F48091FB039091FC038530910521F0E9
:101F40000115110509F0B4CFDF91CF911F910F91C9
:101F50000895E0910A04F0910B04EE0FFF1FE05E7C
:101F6000FB4F808191818130910531F40E942A0BD1
:101F70000E94460F0E94B40BE0910A04F0910B04FA
:101F8000EE0FFF1FE05EFB4F808191818230910553
:101F900079F40E942A0B809108049091090401961B
:101FA00090930904809308040E944D050E94300616
:101FB00008950F931F93CF93DF93E0910A04F0915C
:101FC0000B04EE0FFF1FE05EFB4F808191810097B5
:101FD000B9F4CCE0D2E000E214E082E061E00E94DB
:101FE0002102CE010E941202E0910A04F0910B043A
:101FF000EE0FFF1FE00FF11F80819181009769F3C1
:10200000DF91CF911F910F91089580910A049091D3
:102010000B048830910521F41092140210921302DF
:102020000895CF92DF92EF92FF920F931F93CF9379
:10203000DF93C9EFD5E002E814E0EE24FF246894B2
:10204000E3F8EC0EFD1E0F2EF1E1CF2EF2E0DF2EB5
:10205000F02D899199912091FD033091FE03821713
:10206000930761F5F801808191812091FB03309104
:10207000FC038217930711F50E94920882E068E042
:102080000E942102C6010E94120240910A0450914E
:102090000B0482E060E121E030E00E9441020E94F6
:1020A00005100E94A90F80910A0490910B040196DB
:1020B00090930B0480930A040E9492080E5F1F4FB6
:1020C000CE15DF0531F6809113029091140200972E
:1020D00051F18091040490910504009721F54091FD
:1020E000FD035091FE036091FB037091FC039A0184
:1020F000220F331FCA01880F991F880F991F880F5D
:10210000991F820F931F480F591F640F751FFB0102
:10211000EE0FFF1FEB5EFD4F808191810196918351
:1021200080830E9432081092050410920404DF910B
:10213000CF911F910F91FF90EF90DF90CF90089576
:102140000E9432088FEF9FEFA9E581509040A04098
:10215000E1F700C000000E9455070E9432080E946B
:1021600032080E9465070E9432080895E0910A042F
:10217000F0910B04EE0FFF1FE05EFB4F8081918119
:102180008130910511F40E946705E0910A04F091F5
:102190000B04EE0FFF1FE05EFB4F808191818230C8
:1021A000910511F40E946F0508954F925F926F920E
:1021B0007F928F929F92AF92BF92CF92DF92EF92D7
:1021C000FF920F931F93CF93DF93F8940E94B10572
:1021D00078940E946A010E94D2014091200450919B
:1021E00021044115510569F4C0E2D4E081E061E0C9
:1021F00021E030E00E94410248815981411551059A
:10220000A9F30E9432080F2EF4E4AF2EF4E0BF2EA3
:10221000F02D0F2EF2E38F2EF4E09F2EF02D0F2ED7
:10222000F0E26F2EF4E07F2EF02DD1E00F2EF0E0E3
:102230004F2EF2E05F2EF02D65C0F80141915191D3
:102240008F018D2F6C2F21E030E00E944102F701B9
:10225000419151917F0182E06C2F21E030E00E949A
:102260004102F601419151916F016C2F685F8D2FF2
:1022700021E030E00E944102CF5FC930F1F60E94B8
:10228000400980911A0490911B048130910559F501
:102290000E94CC0E0E94B610E0910A04F0910B044B
:1022A000EE0FFF1FEA0DFB1D4081518182E06AE0C5
:1022B00021E030E00E944102C2010E941202E0913E
:1022C0000A04F0910B04EE0FFF1FE80DF91D408189
:1022D000518182E06CE021E030E00E9441020E94E6
:1022E000600E0E94320880911A0490911B04823083
:1022F000910541F40E94850A0E94D90F0E94EE0ABE
:102300000E9411108091130290911402009729F0FD
:10231000850174016301CD2F90CF0E943E0680E0BD
:1023200090E0DF91CF911F910F91FF90EF90DF90A0
:10233000CF90BF90AF909F908F907F906F905F9065
:102340004F9008955058BB27AA270ED04DC13ED1BB
:1023500030F043D120F031F49F3F11F41EF433C12B
:102360000EF4E095E7FB29C1E92F4FD180F3BA17AE
:10237000620773078407950718F071F49EF567C12B
:102380000EF4E0950B2EBA2FA02D0B01B901900190
:102390000C01CA01A0011124FF27591B99F0593FD4
:1023A00050F4503E68F11A16F040A22F232F342F1C
:1023B0004427585FF3CF469537952795A795F0406A
:1023C0005395C9F77EF41F16BA0B620B730B840B7F
:1023D000BAF09150A1F0FF0FBB1F661F771F881F37
:1023E000C2F70EC0BA0F621F731F841F48F487958F
:1023F00077956795B795F7959E3F08F0B3CF93957E
:10240000880F08F09927EE0F9795879508950CD0BF
:10241000EBC0E3D040F0DAD030F021F45F3F19F0A8
:10242000CCC0511115C1CFC0F0D098F39923C9F396
:102430005523B1F3951B550BBB27AA2762177307CA
:10244000840738F09F5F5F4F220F331F441FAA1F7E
:10245000A9F333D00E2E3AF0E0E830D0915050403E
:10246000E695001CCAF729D0FE2F27D0660F771FEC
:10247000881FBB1F261737074807AB07B0E809F0CE
:10248000BB0B802DBF01FF2793585F4F2AF09E3F63
:10249000510568F092C0DCC05F3FECF3983EDCF37E
:1024A000869577956795B795F7959F5FC9F7880FDC
:1024B000911D9695879597F90895E1E0660F771F2E
:1024C000881FBB1F621773078407BA0720F0621BBF
:1024D000730B840BBA0BEE1F88F7E095089504D0B8
:1024E0006894B111B5C0089598D088F09F5790F0C6
:1024F000B92F9927B751A0F0D1F0660F771F881F29
:10250000991F1AF0BA95C9F712C0B13081F09FD067
:10251000B1E008959CC0672F782F8827B85F39F005
:10252000B93FCCF3869577956795B395D9F73EF487
:1025300090958095709561957F4F8F4F9F4F08952F
:10254000E89409C097FB3EF490958095709561954D
:102550007F4F8F4F9F4F9923A9F0F92F96E9BB2703
:102560009395F695879577956795B795F111F8CF7F
:10257000FAF4BB0F11F460FF1BC06F5F7F4F8F4FEA
:102580009F4F16C0882311F096E911C0772321F0E0
:102590009EE8872F762F05C0662371F096E8862F78
:1025A00070E060E02AF09A95660F771F881FDAF7CF
:1025B000880F9695879597F9089597F99F6780E812
:1025C00070E060E008959FEF80EC089500240A9485
:1025D0001616170618060906089500240A941216FE
:1025E0001306140605060895092E0394000C11F431
:1025F000882352F0BB0F40F4BF2B11F460FF04C0DE
:102600006F5F7F4F8F4F9F4F089557FD9058440F36
:10261000551F59F05F3F71F04795880F97FB991F41
:1026200061F09F3F79F087950895121613061406FE
:10263000551FF2CF4695F1DF08C01616170618068B
:10264000991FF1CF86957105610508940895E89466
:10265000BB2766277727CB0197F908950BD0C4CF06
:10266000B5DF28F0BADF18F0952309F0A6CFABCF7D
:102670001124EECFCADFA0F3959FD1F3950F50E060
:10268000551F629FF001729FBB27F00DB11D639F24
:10269000AA27F00DB11DAA1F649F6627B00DA11DCA
:1026A000661F829F2227B00DA11D621F739FB00D70
:1026B000A11D621F839FA00D611D221F749F3327E0
:1026C000A00D611D231F849F600D211D822F762F79
:1026D0006A2F11249F5750408AF0E1F088234AF076
:1026E000EE0FFF1FBB1F661F771F881F91505040C2
:1026F000A9F79E3F510570F060CFAACF5F3FECF382
:10270000983EDCF3869577956795B795F795E795AD
:102710009F5FC1F7FE2B880F911D9695879597F9BE
:102720000895FA01EE0FFF1F30962105310599F14A
:102730006115710561F48038BFE39B0749F1689426
:102740009038810561F08038BFEF9B0741F09923F5
:1027500042F5FF3FE1053105210511F1E8940894A8
:10276000E795D901AA2329F4AB2FBE2FF85FD0F348
:1027700010C0FF5F70F4A695E0F7F73950F019F03C
:10278000FF3A38F49F779F930CD00F9007FC905836
:1027900008953EF018CF60E070E080E89FE3089570
:1027A0004FE79F775F934F933F932F939ED02F9147
:1027B0003F914F915F9152DF05C019F40EF0FDCEAD
:1027C00046CF01CF2ADFC8F39638C0F707F80F923B
:1027D000E8942BE33AEA48EB5FE74EDF0F920F9263
:1027E0000F924DB75EB70F92C0D0E4EEF0E016D076
:1027F0004F915F91EF91FF91E595EE1FFF1F49F01B
:10280000FE57E0684427EE0F441FFA95E1F7419523
:10281000550B32D00F9007FE26C00895DF93CF935B
:102820001F930F93FF92EF92DF927B018C016894CC
:1028300005C0DA2EEF011EDFFE01E894A591259177
:10284000359145915591AEF3EF018EDDFE01970173
:10285000A801DA9479F7DF90EF90FF900F911F9124
:10286000CF91DF9108959B01AC0160E070E080E8BA
:102870009FE3CDCDA2CEACC0D0DEE8F39923D9F34F
:10288000940F511DBBF39150504094F059F08823A0
:1028900032F0660F771F881F91505040C1F79E3F5E
:1028A000510544F7880F911D9695879597F90895DE
:1028B0005F3FACF0983E9CF0BB2786957795679577
:1028C000B79508F4B1609395C1F7BB0F58F711F4B1
:1028D00060FFE8CF6F5F7F4F8F4F9F4FE3CFB8CE42
:1028E0000EF076C070CE689468CE97DEC8F3992358
:1028F000D1F3C6F3DF93CF931F930F93FF92C92FAA
:10290000DD2788232AF02197660F771F881FDAF7C3
:1029100020E030E040E85FEB9FE3883920F0803E24
:1029200030F021968F770FDDECE0F1E003C00BDD96
:10293000E9E3F1E073DF8B01BE01EC01FB2E6F5781
:1029400071097595771F880B990BFCDD28E132E73B
:1029500041E35FE38FDEAF2D9801AE01FF900F9151
:102960001F91CF91DF9100DD3FCEFA01DC01AA0F6C
:10297000BB1F9B01AC01BF5728F4222733274427F4
:1029800050781FC0B75188F4AB2F00244695379577
:102990002795011CA395D2F3002069F0220F331F65
:1029A000441FB395DAF30DD0CDCC61307105A0E8AA
:1029B0008A07B94630F49B01AC0166277727882740
:1029C0009078309621F02083318342835383089599
:1029D0009F3F31F0915020F4879577956795B79593
:1029E000880F911D9695879597F90895AA1BBB1B93
:1029F00051E107C0AA1FBB1FA617B70710F0A61BFF
:102A0000B70B881F991F5A95A9F780959095BC011F
:082A1000CD010895F894FFCFF9
:102A18007800706C6F740063616D70007761697421
:102A280000700001000900090009000900090009F7
:102A38000009000900090009000900090000000058
:102A48000000000000000000000000000000000975
:102A58000009000000000000000000000000000065
:102A6800000000000009000900000000000000004C
:102A7800000000000000000000000009000900003C
:102A8800000000000000000000000000000000003E
:102A9800000900090000000000000000000000001C
:102AA800000000000000000900090000000000000C
:102AB80000000000000000000000000000090009FC
:102AC80000000000000000000000000000000000FE
:102AD80000000009000900000000000000000000DC
:102AE80000000000000000000009000900000000CC
:102AF80000000000000000000000000000000009C5
:102B08000009000900090009000900090009000975
:102B18000009000900090009000900090009000965
:102B2800000900090009000900090009000900005E
:102B3800000000000000000000000000000000008D
:102B4800000900090000000000000000000000006B
:102B5800000000000000000900090000000000005B
:102B6800000000000000000000000000000900094B
:102B7800000000000000000000000000000000004D
:102B8800000000090009000000000000000000002B
:102B9800000000000000000000090009000000001B
:102BA8000000000000000000000000000000000914
:102BB8000009000000000000000000000000000004
:102BC80000000000000900090000000000000000EB
:102BD80000000000000000000000000900090000DB
:102BE80000000000000000000000000000000000DD
:102BF8000009000900090009000900090009000985
:102C0800000900090009000900010005000A00FA8E
:042C180000030000B5
:04000005008006125F
:00000001FF
